:040000000DEF00F010
:0400080045EF11F0BF
:06001800FF0091EF11F062
:072000000002400000000097
:10200800000EBE6E000EBD6E000EBA6E000EBB6EE8
:10201800000EBC6E070EC66ED70EC26EC368B70E32
:10202800C46EC5683A017069670E606F5069070E23
:10203800806F4069000E716F000E816F000E516F46
:10204800000E416F000E616F000E5A6F000E5B6F3D
:10205800000E6A6F000E6B6F000E7A6F000E7B6FBA
:10206800000E826F000E426F000E526F000E626FFC
:10207800000E726F4369536963697369070E836F52
:1020880044695469646974690F0E846F130EDE6FB6
:102098001E0E136F130E166F170EE56F140EDF6FFB
:1020A8001200BABA5AEF10F05DEF10F0010E5EEFB1
:1020B80010F0000EFF0A0E6E0E3A0E46BA500E18B9
:1020C800DF0B0E18BA6E13BE75EF10F0135007E150
:1020D8000A0E125CD8B073EF10F075EF10F079EFBC
:1020E80010F0124A132A8FEF10F0000E136E000E34
:1020F800126E1DEC11F00009D8B485EF10F087EFCF
:1021080010F08FEF10F03E01E75184EC11F03E0122
:10211800E65184EC11F01200000E3D01EC6F000E48
:10212800ED6F000EEE6F000EEF6F000EF06F000EF9
:10213800F16FB00EF26F800EF36F000EF46F190E90
:10214800F56F000EF66F000EF76F000EF86F000EB9
:10215800F96F000EFA6F000E0F6E000E106E000E73
:10216800116EC4EC11F0000E0F6E000E106E000E12
:10217800116EBDEC11F0000E0F6E000E106E000E09
:10218800116ECBEC11F0000E146E1200000E3E0121
:10219800DE6F000EDF6F000EE06F000EE16F000EC5
:1021A800E46F000EE56F000EEA6F080EEC6F000E8C
:1021B800F16F000EF36F000EF46F000EF56F000E56
:1021C800F66F000EF76F000EF96F340EFA6F070EF8
:1021D800FB6F000EFC6F000EFD6F040EFE6F000E0D
:1021E800FF6F840EF86F3901A1979187AA0E0F6EC1
:1021F800200E106E000E116ED2EC11F01200390193
:10220800A197015002100310D8B40DEF11F00FEF91
:1022180011F01CEF11F002D81CEF11F00500FA6E56
:102228000150FD6E0250FE6E0350FF6EFA50120010
:102238001200000E0D6E3901A3A925EF11F027EF4A
:1022480011F031EF11F03D01F2AB2DEF11F02FEF4E
:1022580011F031EF11F0010E0D6E0D501200000E4D
:102268003901C06F000EC16F000EC26F000EC36F40
:10227800000EC46F000EC56F000EC66F000EC76F4C
:102288001200390191A74BEF11F04DEF11F056EF05
:1022980011F0A1A752EF11F054EF11F056EF11F021
:1022A80003EC11F01100D9EC11F033EC11F004EC4F
:1022B80010F0A9EC11F0CAEC10F068EC11F090ECF9
:1022C80010F077EC11F01200040EAE6E000EAD6E39
:1022D800000EAF6E1E0EAB6E000EAA6E3901A495ED
:1022E800800EAC6E1200020E3D01146F400E156F89
:1022F800000E166F000E1C6F000E196FC4961200A8
:102308000D6E3901A3A98BEF11F08DEF11F085EF58
:1023180011F0600037F0EAFD1200146A136A126ABD
:10232800080ED56E000ED66E000ED76E00019DEF1A
:1023380011F057EC11F0D9EC11F0D28E040EB5EC77
:1023480011F0A5EF11F00DEF00F0620E3901D96F11
:10235800000EDB6F000EDD6F020EDF6F000EDE6F0A
:1023680012000F6E60003FF0F1FE3E01F88FF88119
:1023780012000FC007F010C008F011C009F01200D9
:102388000FC00AF010C00BF011C00CF012000FC003
:1023980004F010C005F011C006F012000FC001F0E3
:0E23A80010C002F011C003F01200D29A120011
:020000040020DA
:10000000FF0FFF0FFF0FFF0FFF0FFF0FFF0FFF0F80
:020000040030CA
:0A000000ECFFF7FF9FFFFFFFFFFF7B
:00000001FF
