:040000000DEF00F010
:040008009FEF16F060
:06001800FF00B1EF16F03D
:102000000076616C756520414443203A20202564A8
:0520100020200A000081
:1020160021C039F022C03AF023C03BF024C03CF086
:1020260025C03DF026C03EF027C03FF028C040F056
:1020360040BE20EF10F023EF10F0010E24EF10F059
:10204600000E376E386A37503810D8B42DEF10F0BE
:102056002FEF10F03FEF10F0401E3F1E3E1E3D1EBC
:102066003C1E3B1E3A1E396C000E3A223B223C2295
:102076003D223E223F224022000165BF45EF10F07F
:1020860047EF10F048EF10F0669365BF55EF10F07C
:10209600655106E16405D8B053EF10F055EF10F026
:1020A6005BEF10F0000E346E010E336E5FEF10F032
:1020B60064C033F065C034F062C035F063C036F0FA
:1020C60037503810D8A46AEF10F06CEF10F073EFA9
:1020D60010F066A571EF10F073EF10F076EF10F0C8
:1020E6003506D8A03606000E426E1F0E416E000E53
:1020F600876FFAEF10F04106D8A04206680E412419
:10210600D96E000E4220DA6E39C002F03AC003F0F2
:102116003BC004F03CC005F03DC006F03EC007F0F1
:102126003FC008F040C009F00A0E0A6E000E0B6EA2
:10213600000E0C6E000E0D6E000E0E6E000E0F6E73
:10214600000E106E000E116E4BEC13F002C029F05B
:1021560003C02AF004C02BF005C02CF006C02DF0F9
:1021660007C02EF008C02FF009C030F029C014F0C7
:102176002BC015F028EC16F01450300FDF6E330626
:10218600D8A034063506D8A0360639C002F03AC0C3
:1021960003F03BC004F03CC005F03DC006F03EC075
:1021A60007F03FC008F040C009F00A0E0A6E000EA4
:1021B6000B6E000E0C6E000E0D6E000E0E6E000EF7
:1021C6000F6E000E106E000E116E87EC12F002C03C
:1021D60039F003C03AF004C03BF005C03CF006C03D
:1021E6003DF007C03EF008C03FF009C040F042BED7
:1021F60005EF11F0425008E14104D8A005EF11F0B7
:1022060007EF11F038EF11F039503A103B103C103F
:102216003D103E103F104010D8A414EF11F016EFF9
:1022260011F07EEF10F034BE23EF11F0345006E1CA
:102236003304D8B021EF11F023EF11F07EEF10F048
:1022460036BE2EEF11F0365008E13504D8A02EEF39
:1022560011F030EF11F038EF11F0000166B336EFF0
:1022660011F038EF11F07EEF10F037503810D8A487
:102276003FEF11F041EF11F049EF11F0000166A5B3
:1022860047EF11F049EF11F068EF11F04106D8A0C1
:10229600420637503810D8A453EF11F055EF11F01D
:1022A6005BEF11F0000E326E2B0E316E5FEF11F008
:1022B600000E326E2D0E316E680E4124D96E000E60
:1022C6004220DA6E6000C7F0DFFF1FC014F020C0A6
:1022D60015F0680E4124166E000E4220176E35C0AA
:1022E60018F036C019F0FDEC13F014C01FF015C03D
:1022F60020F01200600017F1D9FF60001BF1DAFF31
:102306006F007BFFF6FF6F0077FFF7FF000EF86E9A
:102316000800F550250AD8A493EF11F095EF11F0B7
:1023260063EF12F0600017F1D9FF60001BF1DAFFCE
:10233600DE2A000EDD22000E0001636F000E626FC2
:1023460062C066F063C067F064696569600017F192
:10235600D9FF60001BF1DAFF6F007BFFF6FF6F000D
:1023660077FFF7FF000EF86E0800F550640AD8B440
:10237600BFEF11F0C1EF11F0D9EF11F0600017F1C6
:10238600D9FF60001BF1DAFF6F007BFFF6FF6F00DD
:1023960077FFF7FF000EF86E0800F550690AD8A41B
:1023A600D7EF11F0D9EF11F023EF12F0600017F11B
:1023B600D9FF60001BF1DAFFDE2A000EDD22600085
:1023C6001FF1D9FF600023F1DAFF6F007CFF49F0AF
:1023D600020EDE266F007CFF4AF0000EDD22600052
:1023E60027F1D9FF60002BF1DAFF6F0078FF4BF081
:1023F6006F0074FF4CF0000E4CBEFF0E4D6E4E6E1D
:102406004F6E506E516E526E43C01FF044C020F0A6
:102416004BC021F04CC022F04DC023F04EC024F03A
:102426004FC025F050C026F051C027F052C028F00A
:102436000BEC10F01FC043F020C044F086EF12F002
:10244600600017F1D9FF60001BF1DAFF6F007BFF18
:10245600F6FF6F0077FFF7FF000EF86E0800F550E5
:10246600250AD8A439EF12F03BEF12F054EF12F020
:10247600600017F1D9FF60001BF1DAFFDE2A000EBB
:10248600DD22000E056E250E046E43C006F044C024
:1024960007F060EC14F0000E446E010E436E86EFFA
:1024A60012F0600017F1D9FF60001BF1DAFFDE2A97
:1024B600000EDD22000E446E000E436E86EF12F013
:1024C600600017F1D9FF60001BF1DAFF6F007BFF98
:1024D600F6FF6F0077FFF7FF000EF86E0800F55065
:1024E600046E056A43C006F044C007F060EC14F0C1
:1024F600600017F1D9FF60001BF1DAFFDE2A000E3B
:10250600DD224EEF12F01200000E136E11BE90EF98
:1025160012F08EEF12F0A2EF12F0111E101E0F1E17
:102526000E1E0D1E0C1E0B1E0A6C000E0B220C221C
:102536000D220E220F2210221122010E136E09BE49
:10254600A9EF12F0A7EF12F0BBEF12F0091E081E5A
:10255600071E061E051E041E031E026C000E032225
:10256600042205220622072208220922010E131A36
:1025760020EE14F0070EDE6AE806FDE20A500B10A4
:102586000C100D100E100F1010101110D8B4CEEF45
:1025960012F0D0EF12F022EF13F0010E126EDEEF02
:1025A60012F0D8900A360B360C360D360E360F362C
:1025B60010361136122A11AEE3EF12F0E5EF12F0E3
:1025C600D4EF12F0D890143615361636173618365C
:1025D60019361A361B360A50025C0B5003580C503B
:1025E60004580D5005580E5006580F5007581050F5
:1025F600085811500958D8A003EF13F005EF13F04F
:1026060016EF13F00A50025E0B50035A0C50045A90
:102616000D50055A0E50065A0F50075A1050085AB8
:102626001150095A1480D890113210320F320E32DE
:102636000D320C320B320A32122EE5EF12F0135025
:10264600D8B428EF13F02AEF13F03AEF13F01B1E5D
:102656001A1E191E181E171E161E151E146C000EA5
:10266600152216221722182219221A221B2214C0FA
:1026760002F015C003F016C004F017C005F018C02C
:1026860006F019C007F01AC008F01BC009F01200C6
:10269600000E136E09BE54EF13F052EF13F066EFFF
:1026A60013F0091E081E071E061E051E041E031E25
:1026B600026C000E032204220522062207220822AB
:1026C6000922010E136E11BE6DEF13F06BEF13F0BE
:1026D6007DEF13F0111E101E0F1E0E1E0D1E0C1E7A
:1026E6000B1E0A6C000E0B220C220D220E220F224C
:1026F600102211220A500B100C100D100E100F1084
:1027060010101110D8B48AEF13F08CEF13F0D4EF39
:1027160013F0010E126E9AEF13F0D8900A360B36AC
:102726000C360D360E360F3610361136122A11AE0D
:102736009FEF13F0A1EF13F090EF13F00A50025C35
:102746000B5003580C5004580D5005580E5006589F
:102756000F5007581050085811500958D8A0B6EF16
:1027660013F0B8EF13F0C8EF13F00A50025E0B50E7
:10277600035A0C50045A0D50055A0E50065A0F5063
:10278600075A1050085A1150095AD890113210326F
:102796000F320E320D320C320B320A32122EA1EFEC
:1027A60013F01350D8B4DAEF13F0DCEF13F0ECEFBC
:1027B60013F0091E081E071E061E051E041E031E14
:1027C600026C000E0322042205220622072208229A
:1027D600092202C002F003C003F004C004F005C0E1
:1027E60005F006C006F007C007F008C008F009C0EB
:1027F60009F01200000166A103EF14F005EF14F0D2
:102806000FEF14F016C00DF017C00EF014C00FF045
:1028160015C010F006EC16F019BE14EF14F016EF02
:1028260014F01CEF14F018C01DF019C01EF020EFB4
:1028360014F0000E1E6E000E1D6E000E1C6E000EB5
:102846001B6E32EF14F0000E056E200E046E14C0DF
:1028560006F015C007F060EC14F01B4A1C2A1D5048
:102866001B5C1C50800A1A6E1E50800A1A58D8A08B
:102876003FEF14F041EF14F026EF14F0000166B1BB
:1028860047EF14F049EF14F053EF14F016C00DF0B3
:1028960017C00EF014C00FF015C010F006EC16F0BD
:1028A60016C002F017C003F048EC16F01D500224C3
:1028B600146E1E500320156E120006500710D8B471
:1028C60067EF14F069EF14F072EF14F0065007107A
:1028D600D8A470EF14F072EF14F077EF14F00450F0
:1028E60023EC17F0AAEF14F020EE04F00650D926D8
:1028F6000750DA22DE50DE10D8B484EF14F086EFEB
:1029060014F0A1EF14F020EE04F00650D92607507B
:10291600DA2210EE02F00650E1260750E222DE50DF
:10292600E65CE650800A0C6EDE50800A0C58D8B081
:102936009FEF14F0A1EF14F0AAEF14F020EE02F0CE
:102946000650D9260750DA22DE2A000EDD221200B2
:10295600000EBE6E000EBD6E000EBA6E000EBB6E91
:10296600000EBC6E070EC66ED70EC26EC368BF0ED3
:10297600C46EC5683A0170697F0E606F5069070EB4
:10298600806F4069000E716F000E816F000E516FEF
:10299600000E416F000E616F000E5A6F000E5B6FE6
:1029A600000E6A6F000E6B6F000E7A6F000E7B6F63
:1029B600000E826F000E426F000E526F000E626FA5
:1029C600000E726F4369536963697369070E836FFB
:1029D60044695469646974690F0E846F130E166F27
:1029E600170EE56F1200C1EC16F0AAEC15F079ECA3
:1029F60016F0D28E2AEC17F0BA9A28EC17F0A30E2E
:102A06005B6E550EE82EFED75B2EFCD700F0040E4B
:102A1600FFEC16F0E9EC16F00009D8B415EF15F046
:102A260017EF15F00DEF15F0F4EC16F002C05CF0A0
:102A360003C05DF0010E0001946F200E956F5CC01F
:102A460096F05DC097F065EC16F0D10E5C5C070E53
:102A56005D58D8A031EF15F033EF15F036EF15F0CD
:102A6600BA8A02EF15F0BA9A02EF15F00DEF00F0F0
:102A7600000E3D01EC6F000EED6F000EEE6F000EC6
:102A8600EF6F000EF06F000EF16FB00EF26F800E5A
:102A9600F36F000EF46F190EF56F000EF66F000E51
:102AA600F76F000EF86F000EF96F000EFA6F000E4A
:102AB600026E000E036E000E046E0EEC17F0000E92
:102AC600026E000E036E000E046E07EC17F0000E89
:102AD600026E000E036E000E046E15EC17F0000E6B
:102AE6005E6E120055C059F056C05AF0000E000135
:102AF600616F000E606F93EF15F053C043F054C042
:102B060044F0590E456E000E466E57C047F058C049
:102B160048F07DEC11F043500001602744506123DA
:102B2600600067F1F6FF60006BF1F7FF000EF86ECC
:102B36000800F5500009D8A4A3EF15F0A5EF15F08D
:102B460080EF15F060C053F061C054F01200000E23
:102B56003E01DE6F000EDF6F000EE06F000EE16FCC
:102B6600000EE46F000EE56F000EEA6F000EEC6FCC
:102B7600000EF16F000EF36F000EF46F000EF56F8E
:102B8600000EF66F000EF76F000EF96F000EFA6F6B
:102B9600000EFB6F000EFC6F000EFD6F000EFE6F49
:102BA600000EFF6F840EF86F12003901A39F00011B
:102BB600885189118A11D8B4E3EF15F0E5EF15F0C5
:102BC600F2EF15F002D8F2EF15F00500FA6E885113
:102BD600FD6E8951FE6E8A51FF6EFA501200BAB62A
:102BE600F7EF15F0FAEF15F0010EFBEF15F0000EFA
:102BF600FF0A016E014601460146BA500118F70B5D
:102C06000118BA6E1200000E136E000E126E17EF48
:102C160016F011C004F0056A0FC006F010C007F0E8
:102C260060EC14F0124A132A12500D24D96E135078
:102C36000E20DA6EDF50116E1150D8A425EF16F073
:102C460027EF16F00CEF16F0120015BE35EF16F052
:102C5600155006E11404D8B033EF16F035EF16F030
:102C660043EF16F014C016F015C017F0161E171E07
:102C7600164A172A16C014F017C015F047EF16F0BB
:102C860014C014F015C015F0120002C004F003C001
:102C960005F050EF16F0024A032A60000BF0D9FF48
:102CA60060000FF0DAFFDF50D8A45CEF16F05EEF9D
:102CB60016F04EEF16F00450025C026E05500358F3
:102CC600036E1200960E00019A6F000E9B6F000EA7
:102CD600536E000E546E94C055F095C056F09A0E81
:102CE600576E000E586E75EC15F01200680EB96E30
:102CF600020EB76E000EB66E3901A39F938F580E63
:102D0600026E2E0E036E000E046E1CEC17F08E0E75
:102D1600B86E1200000E3901C06F000EC16F000EB2
:102D2600C26F000EC36F000EC46F000EC56F000E9B
:102D3600C66F000EC76F1200390193AFA5EF16F0EC
:102D4600A7EF16F0B0EF16F0A3AFACEF16F0AEEFAC
:102D560016F0B0EF16F0D8EC15F0110000EE60F0AA
:102D6600280EEE6AE806FDE15E6A080ED56E000ED4
:102D7600D66E000ED76E0001F6EF14F02AEC17F0AF
:102D86008DEC16F0ABEC14F0DDEC16F0AAEC15F0B9
:102D960079EC16F03BEC15F01200026E3901A3A98E
:102DA600D7EF16F0D9EF16F0D1EF16F060000BF062
:102DB600EAFD1200620E3901D96F000EDB6F000EBC
:102DC600DD6F020EDF6F000EDE6F12003E01F8A10E
:102DD600EFEF16F0F2EF16F0010EF3EF16F0000E1D
:102DE60012003E01F051056E046AEF510424026E92
:102DF600000E0520036E1200026E60000BF0F1FE5D
:102E06003E01F88FF881120002C08EF003C08FF0E9
:102E160004C090F0120002C091F003C092F004C00A
:102E260093F0120002C08BF003C08CF004C08DF04A
:102E3600120002C088F003C089F004C08AF01200B4
:102E4600036E0350D0EC16F01200B88E1200D29A20
:042E56001200120054
:020000040020DA
:10000000FF0FFF0FFF0FFF0FFF0FFF0FFF0FFF0F80
:020000040030CA
:0A000000ECFFF7FF9FFFFFFFFFFF7B
:00000001FF
